{
  "contractName": "Contribution",
  "abi": [
    {
      "inputs": [
        {
          "internalType": "uint256",
          "name": "_rate",
          "type": "uint256"
        },
        {
          "internalType": "address payable",
          "name": "_wallet",
          "type": "address"
        },
        {
          "internalType": "contract ERC20",
          "name": "_token",
          "type": "address"
        }
      ],
      "stateMutability": "nonpayable",
      "type": "constructor"
    },
    {
      "anonymous": false,
      "inputs": [
        {
          "indexed": true,
          "internalType": "address",
          "name": "purchaser",
          "type": "address"
        },
        {
          "indexed": true,
          "internalType": "address",
          "name": "beneficiary",
          "type": "address"
        },
        {
          "indexed": false,
          "internalType": "uint256",
          "name": "value",
          "type": "uint256"
        },
        {
          "indexed": false,
          "internalType": "uint256",
          "name": "amount",
          "type": "uint256"
        }
      ],
      "name": "TokensPurchased",
      "type": "event"
    },
    {
      "stateMutability": "payable",
      "type": "fallback"
    },
    {
      "inputs": [
        {
          "internalType": "address",
          "name": "beneficiary",
          "type": "address"
        }
      ],
      "name": "buyTokens",
      "outputs": [],
      "stateMutability": "payable",
      "type": "function"
    },
    {
      "inputs": [],
      "name": "rate",
      "outputs": [
        {
          "internalType": "uint256",
          "name": "",
          "type": "uint256"
        }
      ],
      "stateMutability": "view",
      "type": "function"
    },
    {
      "inputs": [],
      "name": "token",
      "outputs": [
        {
          "internalType": "contract IERC20",
          "name": "",
          "type": "address"
        }
      ],
      "stateMutability": "view",
      "type": "function"
    },
    {
      "inputs": [],
      "name": "wallet",
      "outputs": [
        {
          "internalType": "address payable",
          "name": "",
          "type": "address"
        }
      ],
      "stateMutability": "view",
      "type": "function"
    },
    {
      "inputs": [],
      "name": "weiRaised",
      "outputs": [
        {
          "internalType": "uint256",
          "name": "",
          "type": "uint256"
        }
      ],
      "stateMutability": "view",
      "type": "function"
    },
    {
      "inputs": [
        {
          "internalType": "address",
          "name": "donor",
          "type": "address"
        }
      ],
      "name": "returnDonationAmount",
      "outputs": [
        {
          "internalType": "uint256",
          "name": "",
          "type": "uint256"
        }
      ],
      "stateMutability": "view",
      "type": "function"
    }
  ],
  "bytecode": "0x608060405234801561001057600080fd5b50604051610fa2380380610fa28339818101604052606081101561003357600080fd5b810190808051906020019092919080519060200190929190805190602001909291905050508282826001600081905550600083116100d9576040517f08c379a00000000000000000000000000000000000000000000000000000000081526004018080602001828103825260148152602001807f43726f776473616c653a2072617465206973203000000000000000000000000081525060200191505060405180910390fd5b600073ffffffffffffffffffffffffffffffffffffffff168273ffffffffffffffffffffffffffffffffffffffff16141561015f576040517f08c379a0000000000000000000000000000000000000000000000000000000008152600401808060200182810382526025815260200180610f7d6025913960400191505060405180910390fd5b600073ffffffffffffffffffffffffffffffffffffffff168173ffffffffffffffffffffffffffffffffffffffff1614156101e5576040517f08c379a0000000000000000000000000000000000000000000000000000000008152600401808060200182810382526024815260200180610f596024913960400191505060405180910390fd5b8260038190555081600260006101000a81548173ffffffffffffffffffffffffffffffffffffffff021916908373ffffffffffffffffffffffffffffffffffffffff16021790555080600160006101000a81548173ffffffffffffffffffffffffffffffffffffffff021916908373ffffffffffffffffffffffffffffffffffffffff160217905550505050505050610cd6806102836000396000f3fe6080604052600436106100595760003560e01c80632c4e722e1461006c5780633e58ecb7146100975780634042b66f146100fc578063521eb27314610127578063ec8ac4d814610168578063fc0c546a146101ac5761005a565b5b61006a6100656101ed565b6101f5565b005b34801561007857600080fd5b50610081610354565b6040518082815260200191505060405180910390f35b3480156100a357600080fd5b506100e6600480360360208110156100ba57600080fd5b81019080803573ffffffffffffffffffffffffffffffffffffffff16906020019092919050505061035e565b6040518082815260200191505060405180910390f35b34801561010857600080fd5b50610111610449565b6040518082815260200191505060405180910390f35b34801561013357600080fd5b5061013c610453565b604051808273ffffffffffffffffffffffffffffffffffffffff16815260200191505060405180910390f35b6101aa6004803603602081101561017e57600080fd5b81019080803573ffffffffffffffffffffffffffffffffffffffff1690602001909291905050506101f5565b005b3480156101b857600080fd5b506101c161047d565b604051808273ffffffffffffffffffffffffffffffffffffffff16815260200191505060405180910390f35b600033905090565b6002600054141561026e576040517f08c379a000000000000000000000000000000000000000000000000000000000815260040180806020018281038252601f8152602001807f5265656e7472616e637947756172643a207265656e7472616e742063616c6c0081525060200191505060405180910390fd5b6002600081905550600034905061028582826104a7565b6000610290826105a8565b90506102a7826004546105c690919063ffffffff16565b6004819055506102b7838261064e565b8273ffffffffffffffffffffffffffffffffffffffff166102d66101ed565b73ffffffffffffffffffffffffffffffffffffffff167f6faf93231a456e552dbc9961f58d9713ee4f2e69d15f1975b050ef0911053a7b8484604051808381526020018281526020019250505060405180910390a3610335838361065c565b61033d6106eb565b6103478383610756565b5050600160008190555050565b6000600354905090565b60008073ffffffffffffffffffffffffffffffffffffffff168273ffffffffffffffffffffffffffffffffffffffff161415610402576040517f08c379a000000000000000000000000000000000000000000000000000000000815260040180806020018281038252600c8152602001807f7a65726f2061646472657373000000000000000000000000000000000000000081525060200191505060405180910390fd5b600560008373ffffffffffffffffffffffffffffffffffffffff1673ffffffffffffffffffffffffffffffffffffffff168152602001908152602001600020549050919050565b6000600454905090565b6000600260009054906101000a900473ffffffffffffffffffffffffffffffffffffffff16905090565b6000600160009054906101000a900473ffffffffffffffffffffffffffffffffffffffff16905090565b600073ffffffffffffffffffffffffffffffffffffffff168273ffffffffffffffffffffffffffffffffffffffff16141561052d576040517f08c379a000000000000000000000000000000000000000000000000000000000815260040180806020018281038252602a815260200180610c4d602a913960400191505060405180910390fd5b60008114156105a4576040517f08c379a00000000000000000000000000000000000000000000000000000000081526004018080602001828103825260198152602001807f43726f776473616c653a20776569416d6f756e7420697320300000000000000081525060200191505060405180910390fd5b5050565b60006105bf6003548361075a90919063ffffffff16565b9050919050565b600080828401905083811015610644576040517f08c379a000000000000000000000000000000000000000000000000000000000815260040180806020018281038252601b8152602001807f536166654d6174683a206164646974696f6e206f766572666c6f77000000000081525060200191505060405180910390fd5b8091505092915050565b61065882826107e0565b5050565b6000600560008473ffffffffffffffffffffffffffffffffffffffff1673ffffffffffffffffffffffffffffffffffffffff168152602001908152602001600020549050818101600560008573ffffffffffffffffffffffffffffffffffffffff1673ffffffffffffffffffffffffffffffffffffffff16815260200190815260200160002081905550505050565b600260009054906101000a900473ffffffffffffffffffffffffffffffffffffffff1673ffffffffffffffffffffffffffffffffffffffff166108fc349081150290604051600060405180830381858888f19350505050158015610753573d6000803e3d6000fd5b50565b5050565b60008083141561076d57600090506107da565b600082840290508284828161077e57fe5b04146107d5576040517f08c379a0000000000000000000000000000000000000000000000000000000008152600401808060200182810382526021815260200180610c2c6021913960400191505060405180910390fd5b809150505b92915050565b61082d8282600160009054906101000a900473ffffffffffffffffffffffffffffffffffffffff1673ffffffffffffffffffffffffffffffffffffffff166108319092919063ffffffff16565b5050565b6108ce8363a9059cbb60e01b8484604051602401808373ffffffffffffffffffffffffffffffffffffffff16815260200182815260200192505050604051602081830303815290604052907bffffffffffffffffffffffffffffffffffffffffffffffffffffffff19166020820180517bffffffffffffffffffffffffffffffffffffffffffffffffffffffff83818316178352505050506108d3565b505050565b6060610935826040518060400160405280602081526020017f5361666545524332303a206c6f772d6c6576656c2063616c6c206661696c65648152508573ffffffffffffffffffffffffffffffffffffffff166109c29092919063ffffffff16565b90506000815111156109bd5780806020019051602081101561095657600080fd5b81019080805190602001909291905050506109bc576040517f08c379a000000000000000000000000000000000000000000000000000000000815260040180806020018281038252602a815260200180610c77602a913960400191505060405180910390fd5b5b505050565b60606109d184846000856109da565b90509392505050565b60606109e585610be0565b610a57576040517f08c379a000000000000000000000000000000000000000000000000000000000815260040180806020018281038252601d8152602001807f416464726573733a2063616c6c20746f206e6f6e2d636f6e747261637400000081525060200191505060405180910390fd5b600060608673ffffffffffffffffffffffffffffffffffffffff1685876040518082805190602001908083835b60208310610aa75780518252602082019150602081019050602083039250610a84565b6001836020036101000a03801982511681845116808217855250505050505090500191505060006040518083038185875af1925050503d8060008114610b09576040519150601f19603f3d011682016040523d82523d6000602084013e610b0e565b606091505b50915091508115610b23578092505050610bd8565b600081511115610b365780518082602001fd5b836040517f08c379a00000000000000000000000000000000000000000000000000000000081526004018080602001828103825283818151815260200191508051906020019080838360005b83811015610b9d578082015181840152602081019050610b82565b50505050905090810190601f168015610bca5780820380516001836020036101000a031916815260200191505b509250505060405180910390fd5b949350505050565b60008060007fc5d2460186f7233c927e7db2dcc703c0e500b653ca82273b7bfad8045d85a47060001b9050833f9150808214158015610c2257506000801b8214155b9250505091905056fe536166654d6174683a206d756c7469706c69636174696f6e206f766572666c6f7743726f776473616c653a2062656e656669636961727920697320746865207a65726f20616464726573735361666545524332303a204552433230206f7065726174696f6e20646964206e6f742073756363656564a264697066735822122018faa96c901450b60eaa78465c167a04245d680f5d050199778fc07dcb064dd564736f6c634300060c003343726f776473616c653a20746f6b656e20697320746865207a65726f206164647265737343726f776473616c653a2077616c6c657420697320746865207a65726f2061646472657373",
  "immutableReferences": {},
  "source": "// SPDX-License-Identifier: MIT\n// contracts/Upstate.sol\n\npragma solidity >=0.5.0 <0.7.0;\n\nimport \"@openzeppelin/contracts/token/ERC20/ERC20.sol\";\nimport \"@openzeppelin/contracts/math/SafeMath.sol\";\nimport \"./Crowdsale.sol\";\n\n/// @title A Contribution contract which allows users to donate ETH tokens and receive Upstate in return\n/// @notice The donations are capped after 1000 ETH have been donated\ncontract Contribution is Crowdsale {\n\n    // stores the amount that each address has donated to this contract\n    mapping(address => uint) private donationAmounts;\n\n\n    constructor(uint256 _rate, address payable _wallet, ERC20 _token) \n        Crowdsale(_rate, _wallet, _token) public  {\n    }\n\n\n    /// @notice this overrides the parent crowdsale function to retain the total donation amt for each user\n    /// @dev modifies the state of the donationAmounts mapping \n    /// @param beneficiary address of the donor of the ETH\n    /// @param weiAmount is the new wei amount donated by this donor, *not* cumulative amount\n    function _updatePurchasingState(address beneficiary, uint256 weiAmount) internal override {\n        uint256 oldAmount = donationAmounts[beneficiary];\n        donationAmounts[beneficiary] = oldAmount + weiAmount;\n    }  \n\n    /// @param donor the address of the donor \n    /// @return uint256 the amount of wei donated so far by this donor   \n    function returnDonationAmount(address donor) public view returns (uint256) {\n        require(donor != address(0), \"zero address\");\n        return donationAmounts[donor];\n    }\n\n}\n",
  "sourcePath": "/Users/KMD/Desktop/Development/Blockchain/coin/contracts/Contribution.sol",
  "compiler": {
    "name": "solc",
    "version": "0.6.12+commit.27d51765.Linux.g++"
  },
  "schemaVersion": "3.2.2",
  "updatedAt": "2020-07-30T05:28:42.160Z",
  "devdoc": {
    "kind": "dev",
    "methods": {
      "buyTokens(address)": {
        "details": "low level token purchase ***DO NOT OVERRIDE*** This function has a non-reentrancy guard, so it shouldn't be called by another `nonReentrant` function.",
        "params": {
          "beneficiary": "Recipient of the token purchase"
        }
      },
      "rate()": {
        "returns": {
          "_0": "the number of token units a buyer gets per wei."
        }
      },
      "returnDonationAmount(address)": {
        "params": {
          "donor": "the address of the donor "
        },
        "returns": {
          "_0": "uint256 the amount of wei donated so far by this donor   "
        }
      },
      "token()": {
        "returns": {
          "_0": "the token being sold."
        }
      },
      "wallet()": {
        "returns": {
          "_0": "the address where funds are collected."
        }
      },
      "weiRaised()": {
        "returns": {
          "_0": "the amount of wei raised."
        }
      }
    },
    "title": "A Contribution contract which allows users to donate ETH tokens and receive Upstate in return",
    "version": 1
  },
  "userdoc": {
    "events": {
      "TokensPurchased(address,address,uint256,uint256)": {
        "notice": "Event for token purchase logging"
      }
    },
    "kind": "user",
    "methods": {},
    "notice": "The donations are capped after 1000 ETH have been donated",
    "version": 1
  }
}