{
  "contractName": "Counter",
  "abi": [
    {
      "inputs": [],
      "name": "value",
      "outputs": [
        {
          "internalType": "uint256",
          "name": "",
          "type": "uint256"
        }
      ],
      "stateMutability": "view",
      "type": "function"
    },
    {
      "inputs": [
        {
          "internalType": "uint256",
          "name": "amount",
          "type": "uint256"
        }
      ],
      "name": "increase",
      "outputs": [],
      "stateMutability": "nonpayable",
      "type": "function"
    }
  ],
  "bytecode": "0x608060405234801561001057600080fd5b5060cc8061001f6000396000f3fe6080604052348015600f57600080fd5b506004361060325760003560e01c806330f3f0db1460375780633fa4f245146062575b600080fd5b606060048036036020811015604b57600080fd5b8101908080359060200190929190505050607e565b005b60686090565b6040518082815260200191505060405180910390f35b80600080828254019250508190555050565b6000548156fea264697066735822122035215145b8aac3f1100f52d7c2f1b94da1ab6ca80bd5408bdbe32b3786c96ef064736f6c634300060c0033",
  "immutableReferences": {},
  "source": "// SPDX-License-Identifier: MIT\n// contracts/Counter.sol\npragma solidity >=0.5.0;\n\n\ncontract Counter {\n    uint256 public value;\n\n    function increase(uint256 amount) public {\n      value += amount;\n    }\n}",
  "sourcePath": "contracts/Counter.sol",
  "compiler": {
    "name": "solc",
    "version": "0.6.12+commit.27d51765.Linux.g++"
  },
  "schemaVersion": "3.2.2",
  "updatedAt": "2020-07-24T02:46:48.696Z",
  "devdoc": {
    "kind": "dev",
    "methods": {},
    "version": 1
  },
  "userdoc": {
    "kind": "user",
    "methods": {},
    "version": 1
  }
}