{
  "contractName": "Upstate",
  "abi": [
    {
      "inputs": [
        {
          "internalType": "string",
          "name": "_name",
          "type": "string"
        },
        {
          "internalType": "string",
          "name": "_symbol",
          "type": "string"
        },
        {
          "internalType": "uint256",
          "name": "_startTime",
          "type": "uint256"
        },
        {
          "internalType": "uint256",
          "name": "_endTime",
          "type": "uint256"
        }
      ],
      "stateMutability": "nonpayable",
      "type": "constructor"
    },
    {
      "anonymous": false,
      "inputs": [
        {
          "indexed": true,
          "internalType": "address",
          "name": "owner",
          "type": "address"
        },
        {
          "indexed": true,
          "internalType": "address",
          "name": "spender",
          "type": "address"
        },
        {
          "indexed": false,
          "internalType": "uint256",
          "name": "value",
          "type": "uint256"
        }
      ],
      "name": "Approval",
      "type": "event"
    },
    {
      "anonymous": false,
      "inputs": [
        {
          "indexed": true,
          "internalType": "address",
          "name": "from",
          "type": "address"
        },
        {
          "indexed": true,
          "internalType": "address",
          "name": "to",
          "type": "address"
        },
        {
          "indexed": false,
          "internalType": "uint256",
          "name": "value",
          "type": "uint256"
        }
      ],
      "name": "Transfer",
      "type": "event"
    },
    {
      "inputs": [
        {
          "internalType": "address",
          "name": "owner",
          "type": "address"
        },
        {
          "internalType": "address",
          "name": "spender",
          "type": "address"
        }
      ],
      "name": "allowance",
      "outputs": [
        {
          "internalType": "uint256",
          "name": "",
          "type": "uint256"
        }
      ],
      "stateMutability": "view",
      "type": "function"
    },
    {
      "inputs": [
        {
          "internalType": "address",
          "name": "spender",
          "type": "address"
        },
        {
          "internalType": "uint256",
          "name": "amount",
          "type": "uint256"
        }
      ],
      "name": "approve",
      "outputs": [
        {
          "internalType": "bool",
          "name": "",
          "type": "bool"
        }
      ],
      "stateMutability": "nonpayable",
      "type": "function"
    },
    {
      "inputs": [
        {
          "internalType": "address",
          "name": "account",
          "type": "address"
        }
      ],
      "name": "balanceOf",
      "outputs": [
        {
          "internalType": "uint256",
          "name": "",
          "type": "uint256"
        }
      ],
      "stateMutability": "view",
      "type": "function"
    },
    {
      "inputs": [],
      "name": "createTime",
      "outputs": [
        {
          "internalType": "uint256",
          "name": "",
          "type": "uint256"
        }
      ],
      "stateMutability": "view",
      "type": "function"
    },
    {
      "inputs": [],
      "name": "decimals",
      "outputs": [
        {
          "internalType": "uint8",
          "name": "",
          "type": "uint8"
        }
      ],
      "stateMutability": "view",
      "type": "function"
    },
    {
      "inputs": [
        {
          "internalType": "address",
          "name": "spender",
          "type": "address"
        },
        {
          "internalType": "uint256",
          "name": "subtractedValue",
          "type": "uint256"
        }
      ],
      "name": "decreaseAllowance",
      "outputs": [
        {
          "internalType": "bool",
          "name": "",
          "type": "bool"
        }
      ],
      "stateMutability": "nonpayable",
      "type": "function"
    },
    {
      "inputs": [
        {
          "internalType": "address",
          "name": "spender",
          "type": "address"
        },
        {
          "internalType": "uint256",
          "name": "addedValue",
          "type": "uint256"
        }
      ],
      "name": "increaseAllowance",
      "outputs": [
        {
          "internalType": "bool",
          "name": "",
          "type": "bool"
        }
      ],
      "stateMutability": "nonpayable",
      "type": "function"
    },
    {
      "inputs": [],
      "name": "name",
      "outputs": [
        {
          "internalType": "string",
          "name": "",
          "type": "string"
        }
      ],
      "stateMutability": "view",
      "type": "function"
    },
    {
      "inputs": [],
      "name": "symbol",
      "outputs": [
        {
          "internalType": "string",
          "name": "",
          "type": "string"
        }
      ],
      "stateMutability": "view",
      "type": "function"
    },
    {
      "inputs": [],
      "name": "totalSupply",
      "outputs": [
        {
          "internalType": "uint256",
          "name": "",
          "type": "uint256"
        }
      ],
      "stateMutability": "view",
      "type": "function"
    },
    {
      "inputs": [
        {
          "internalType": "address",
          "name": "recipient",
          "type": "address"
        },
        {
          "internalType": "uint256",
          "name": "amount",
          "type": "uint256"
        }
      ],
      "name": "transfer",
      "outputs": [
        {
          "internalType": "bool",
          "name": "",
          "type": "bool"
        }
      ],
      "stateMutability": "nonpayable",
      "type": "function"
    },
    {
      "inputs": [
        {
          "internalType": "address",
          "name": "sender",
          "type": "address"
        },
        {
          "internalType": "address",
          "name": "recipient",
          "type": "address"
        },
        {
          "internalType": "uint256",
          "name": "amount",
          "type": "uint256"
        }
      ],
      "name": "transferFrom",
      "outputs": [
        {
          "internalType": "bool",
          "name": "",
          "type": "bool"
        }
      ],
      "stateMutability": "nonpayable",
      "type": "function"
    }
  ],
  "bytecode": "0x60806040523480156200001157600080fd5b50604051620018d2380380620018d2833981810160405260808110156200003757600080fd5b81019080805160405193929190846401000000008211156200005857600080fd5b838201915060208201858111156200006f57600080fd5b82518660018202830111640100000000821117156200008d57600080fd5b8083526020830192505050908051906020019080838360005b83811015620000c3578082015181840152602081019050620000a6565b50505050905090810190601f168015620000f15780820380516001836020036101000a031916815260200191505b50604052602001805160405193929190846401000000008211156200011557600080fd5b838201915060208201858111156200012c57600080fd5b82518660018202830111640100000000821117156200014a57600080fd5b8083526020830192505050908051906020019080838360005b838110156200018057808201518184015260208101905062000163565b50505050905090810190601f168015620001ae5780820380516001836020036101000a031916815260200191505b50604052602001805190602001909291908051906020019092919050505083838160039080519060200190620001e692919062000593565b508060049080519060200190620001ff92919062000593565b506012600560006101000a81548160ff021916908360ff160217905550505062000232336103e86200024a60201b60201c565b81600681905550806007819055505050505062000639565b600073ffffffffffffffffffffffffffffffffffffffff168273ffffffffffffffffffffffffffffffffffffffff161415620002ee576040517f08c379a000000000000000000000000000000000000000000000000000000000815260040180806020018281038252601f8152602001807f45524332303a206d696e7420746f20746865207a65726f20616464726573730081525060200191505060405180910390fd5b62000302600083836200042860201b60201c565b6200031e816002546200050560201b620009cf1790919060201c565b6002819055506200037c816000808573ffffffffffffffffffffffffffffffffffffffff1673ffffffffffffffffffffffffffffffffffffffff168152602001908152602001600020546200050560201b620009cf1790919060201c565b6000808473ffffffffffffffffffffffffffffffffffffffff1673ffffffffffffffffffffffffffffffffffffffff168152602001908152602001600020819055508173ffffffffffffffffffffffffffffffffffffffff16600073ffffffffffffffffffffffffffffffffffffffff167fddf252ad1be2c89b69c2b068fc378daa952ba7f163c4a11628f55a4df523b3ef836040518082815260200191505060405180910390a35050565b620004408383836200058e60201b62000a571760201c565b6000429050600654811015620004a2576040517f08c379a000000000000000000000000000000000000000000000000000000000815260040180806020018281038252602b815260200180620018a7602b913960400191505060405180910390fd5b600754811115620004ff576040517f08c379a000000000000000000000000000000000000000000000000000000000815260040180806020018281038252602a8152602001806200187d602a913960400191505060405180910390fd5b50505050565b60008082840190508381101562000584576040517f08c379a000000000000000000000000000000000000000000000000000000000815260040180806020018281038252601b8152602001807f536166654d6174683a206164646974696f6e206f766572666c6f77000000000081525060200191505060405180910390fd5b8091505092915050565b505050565b828054600181600116156101000203166002900490600052602060002090601f016020900481019282601f10620005d657805160ff191683800117855562000607565b8280016001018555821562000607579182015b8281111562000606578251825591602001919060010190620005e9565b5b5090506200061691906200061a565b5090565b5b80821115620006355760008160009055506001016200061b565b5090565b61123480620006496000396000f3fe608060405234801561001057600080fd5b50600436106100b45760003560e01c806361dcd7ab1161007157806361dcd7ab146102c757806370a08231146102e557806395d89b411461033d578063a457c2d7146103c0578063a9059cbb14610424578063dd62ed3e14610488576100b4565b806306fdde03146100b9578063095ea7b31461013c57806318160ddd146101a057806323b872dd146101be578063313ce567146102425780633950935114610263575b600080fd5b6100c1610500565b6040518080602001828103825283818151815260200191508051906020019080838360005b838110156101015780820151818401526020810190506100e6565b50505050905090810190601f16801561012e5780820380516001836020036101000a031916815260200191505b509250505060405180910390f35b6101886004803603604081101561015257600080fd5b81019080803573ffffffffffffffffffffffffffffffffffffffff169060200190929190803590602001909291905050506105a2565b60405180821515815260200191505060405180910390f35b6101a86105c0565b6040518082815260200191505060405180910390f35b61022a600480360360608110156101d457600080fd5b81019080803573ffffffffffffffffffffffffffffffffffffffff169060200190929190803573ffffffffffffffffffffffffffffffffffffffff169060200190929190803590602001909291905050506105ca565b60405180821515815260200191505060405180910390f35b61024a6106a3565b604051808260ff16815260200191505060405180910390f35b6102af6004803603604081101561027957600080fd5b81019080803573ffffffffffffffffffffffffffffffffffffffff169060200190929190803590602001909291905050506106ba565b60405180821515815260200191505060405180910390f35b6102cf61076d565b6040518082815260200191505060405180910390f35b610327600480360360208110156102fb57600080fd5b81019080803573ffffffffffffffffffffffffffffffffffffffff169060200190929190505050610773565b6040518082815260200191505060405180910390f35b6103456107bb565b6040518080602001828103825283818151815260200191508051906020019080838360005b8381101561038557808201518184015260208101905061036a565b50505050905090810190601f1680156103b25780820380516001836020036101000a031916815260200191505b509250505060405180910390f35b61040c600480360360408110156103d657600080fd5b81019080803573ffffffffffffffffffffffffffffffffffffffff1690602001909291908035906020019092919050505061085d565b60405180821515815260200191505060405180910390f35b6104706004803603604081101561043a57600080fd5b81019080803573ffffffffffffffffffffffffffffffffffffffff1690602001909291908035906020019092919050505061092a565b60405180821515815260200191505060405180910390f35b6104ea6004803603604081101561049e57600080fd5b81019080803573ffffffffffffffffffffffffffffffffffffffff169060200190929190803573ffffffffffffffffffffffffffffffffffffffff169060200190929190505050610948565b6040518082815260200191505060405180910390f35b606060038054600181600116156101000203166002900480601f0160208091040260200160405190810160405280929190818152602001828054600181600116156101000203166002900480156105985780601f1061056d57610100808354040283529160200191610598565b820191906000526020600020905b81548152906001019060200180831161057b57829003601f168201915b5050505050905090565b60006105b66105af610a5c565b8484610a64565b6001905092915050565b6000600254905090565b60006105d7848484610c5b565b610698846105e3610a5c565b6106938560405180606001604052806028815260200161113e60289139600160008b73ffffffffffffffffffffffffffffffffffffffff1673ffffffffffffffffffffffffffffffffffffffff1681526020019081526020016000206000610649610a5c565b73ffffffffffffffffffffffffffffffffffffffff1673ffffffffffffffffffffffffffffffffffffffff16815260200190815260200160002054610f1c9092919063ffffffff16565b610a64565b600190509392505050565b6000600560009054906101000a900460ff16905090565b60006107636106c7610a5c565b8461075e85600160006106d8610a5c565b73ffffffffffffffffffffffffffffffffffffffff1673ffffffffffffffffffffffffffffffffffffffff16815260200190815260200160002060008973ffffffffffffffffffffffffffffffffffffffff1673ffffffffffffffffffffffffffffffffffffffff168152602001908152602001600020546109cf90919063ffffffff16565b610a64565b6001905092915050565b60085481565b60008060008373ffffffffffffffffffffffffffffffffffffffff1673ffffffffffffffffffffffffffffffffffffffff168152602001908152602001600020549050919050565b606060048054600181600116156101000203166002900480601f0160208091040260200160405190810160405280929190818152602001828054600181600116156101000203166002900480156108535780601f1061082857610100808354040283529160200191610853565b820191906000526020600020905b81548152906001019060200180831161083657829003601f168201915b5050505050905090565b600061092061086a610a5c565b8461091b856040518060600160405280602581526020016111da6025913960016000610894610a5c565b73ffffffffffffffffffffffffffffffffffffffff1673ffffffffffffffffffffffffffffffffffffffff16815260200190815260200160002060008a73ffffffffffffffffffffffffffffffffffffffff1673ffffffffffffffffffffffffffffffffffffffff16815260200190815260200160002054610f1c9092919063ffffffff16565b610a64565b6001905092915050565b600061093e610937610a5c565b8484610c5b565b6001905092915050565b6000600160008473ffffffffffffffffffffffffffffffffffffffff1673ffffffffffffffffffffffffffffffffffffffff16815260200190815260200160002060008373ffffffffffffffffffffffffffffffffffffffff1673ffffffffffffffffffffffffffffffffffffffff16815260200190815260200160002054905092915050565b600080828401905083811015610a4d576040517f08c379a000000000000000000000000000000000000000000000000000000000815260040180806020018281038252601b8152602001807f536166654d6174683a206164646974696f6e206f766572666c6f77000000000081525060200191505060405180910390fd5b8091505092915050565b505050565b600033905090565b600073ffffffffffffffffffffffffffffffffffffffff168373ffffffffffffffffffffffffffffffffffffffff161415610aea576040517f08c379a000000000000000000000000000000000000000000000000000000000815260040180806020018281038252602481526020018061118b6024913960400191505060405180910390fd5b600073ffffffffffffffffffffffffffffffffffffffff168273ffffffffffffffffffffffffffffffffffffffff161415610b70576040517f08c379a00000000000000000000000000000000000000000000000000000000081526004018080602001828103825260228152602001806110cc6022913960400191505060405180910390fd5b80600160008573ffffffffffffffffffffffffffffffffffffffff1673ffffffffffffffffffffffffffffffffffffffff16815260200190815260200160002060008473ffffffffffffffffffffffffffffffffffffffff1673ffffffffffffffffffffffffffffffffffffffff168152602001908152602001600020819055508173ffffffffffffffffffffffffffffffffffffffff168373ffffffffffffffffffffffffffffffffffffffff167f8c5be1e5ebec7d5bd14f71427d1e84f3dd0314c0f7b2291e5b200ac8c7c3b925836040518082815260200191505060405180910390a3505050565b600073ffffffffffffffffffffffffffffffffffffffff168373ffffffffffffffffffffffffffffffffffffffff161415610ce1576040517f08c379a00000000000000000000000000000000000000000000000000000000081526004018080602001828103825260258152602001806111666025913960400191505060405180910390fd5b600073ffffffffffffffffffffffffffffffffffffffff168273ffffffffffffffffffffffffffffffffffffffff161415610d67576040517f08c379a00000000000000000000000000000000000000000000000000000000081526004018080602001828103825260238152602001806110a96023913960400191505060405180910390fd5b610d72838383610fdc565b610ddd816040518060600160405280602681526020016110ee602691396000808773ffffffffffffffffffffffffffffffffffffffff1673ffffffffffffffffffffffffffffffffffffffff16815260200190815260200160002054610f1c9092919063ffffffff16565b6000808573ffffffffffffffffffffffffffffffffffffffff1673ffffffffffffffffffffffffffffffffffffffff16815260200190815260200160002081905550610e70816000808573ffffffffffffffffffffffffffffffffffffffff1673ffffffffffffffffffffffffffffffffffffffff168152602001908152602001600020546109cf90919063ffffffff16565b6000808473ffffffffffffffffffffffffffffffffffffffff1673ffffffffffffffffffffffffffffffffffffffff168152602001908152602001600020819055508173ffffffffffffffffffffffffffffffffffffffff168373ffffffffffffffffffffffffffffffffffffffff167fddf252ad1be2c89b69c2b068fc378daa952ba7f163c4a11628f55a4df523b3ef836040518082815260200191505060405180910390a3505050565b6000838311158290610fc9576040517f08c379a00000000000000000000000000000000000000000000000000000000081526004018080602001828103825283818151815260200191508051906020019080838360005b83811015610f8e578082015181840152602081019050610f73565b50505050905090810190601f168015610fbb5780820380516001836020036101000a031916815260200191505b509250505060405180910390fd5b5060008385039050809150509392505050565b610fe7838383610a57565b6000429050600654811015611047576040517f08c379a000000000000000000000000000000000000000000000000000000000815260040180806020018281038252602b8152602001806111af602b913960400191505060405180910390fd5b6007548111156110a2576040517f08c379a000000000000000000000000000000000000000000000000000000000815260040180806020018281038252602a815260200180611114602a913960400191505060405180910390fd5b5050505056fe45524332303a207472616e7366657220746f20746865207a65726f206164647265737345524332303a20617070726f766520746f20746865207a65726f206164647265737345524332303a207472616e7366657220616d6f756e7420657863656564732062616c616e636563616e206f6e6c792073656e64207472616e73616374696f6e73206265666f726520656e642074696d6545524332303a207472616e7366657220616d6f756e74206578636565647320616c6c6f77616e636545524332303a207472616e736665722066726f6d20746865207a65726f206164647265737345524332303a20617070726f76652066726f6d20746865207a65726f206164647265737363616e206f6e6c792073656e64207472616e73616374696f6e732061667465722073746172742074696d6545524332303a2064656372656173656420616c6c6f77616e63652062656c6f77207a65726fa26469706673582212202d6c2e5ba2344a984bb9f18be8749d23ad132b15713d857619b39dc4f9697cfd64736f6c634300060c003363616e206f6e6c792073656e64207472616e73616374696f6e73206265666f726520656e642074696d6563616e206f6e6c792073656e64207472616e73616374696f6e732061667465722073746172742074696d65",
  "immutableReferences": {},
  "source": "// SPDX-License-Identifier: MIT\n// contracts/Upstate.sol\npragma solidity >=0.5.0 <0.7.0;\n\nimport '@openzeppelin/contracts/token/ERC20/ERC20.sol';\n\n/// @title A mintable ERC20 token \"Upstate\" with restricted transfer times\n/// @notice The token can only be transferred between the startTime and endTime. 1000 tokens intialized\ncontract Upstate is ERC20 {\n    uint256 private startTime;\n    uint256 private endTime;\n    uint256 public createTime;\n\n    /// @param _name name of the token - set by parent constructor\n    /// @param _symbol symbol of the token - set by parent constructor\n    /// @param _endTime the last time at which tokens should be sent\n    /// @param _startTime the first time at which tokens can be sent\n    /// @dev uses default 18 decimals defined by parent\n    constructor(string memory _name, string memory _symbol, uint256 _startTime, uint256 _endTime) \n        ERC20(_name, _symbol) \n        public {\n            _mint(msg.sender, 1000);\n            startTime = _startTime;\n            endTime = _endTime;\n        }\n\n    /// @notice overrides function such that before any token transfer takes place it checks valid time\n    /// @param _from address sending the tokens\n    /// @param _to address receiving the tokens\n    /// @param _amount amount of token sent in this transasction\n    function _beforeTokenTransfer(address _from, address _to, uint256 _amount) internal override {\n        super._beforeTokenTransfer(_from, _to, _amount); \n        uint256 time = block.timestamp;\n        require(time >= startTime, \"can only send transactions after start time\");\n        require(time <= endTime, \"can only send transactions before end time\");  \n    }\n    \n}\n",
  "sourcePath": "/Users/KMD/Desktop/Development/Blockchain/coin/contracts/Upstate.sol",
  "compiler": {
    "name": "solc",
    "version": "0.6.12+commit.27d51765.Linux.g++"
  },
  "schemaVersion": "3.2.2",
  "updatedAt": "2020-07-30T05:27:13.464Z",
  "devdoc": {
    "kind": "dev",
    "methods": {
      "allowance(address,address)": {
        "details": "See {IERC20-allowance}."
      },
      "approve(address,uint256)": {
        "details": "See {IERC20-approve}. Requirements: - `spender` cannot be the zero address."
      },
      "balanceOf(address)": {
        "details": "See {IERC20-balanceOf}."
      },
      "constructor": {
        "details": "uses default 18 decimals defined by parent",
        "params": {
          "_endTime": "the last time at which tokens should be sent",
          "_name": "name of the token - set by parent constructor",
          "_startTime": "the first time at which tokens can be sent",
          "_symbol": "symbol of the token - set by parent constructor"
        }
      },
      "decimals()": {
        "details": "Returns the number of decimals used to get its user representation. For example, if `decimals` equals `2`, a balance of `505` tokens should be displayed to a user as `5,05` (`505 / 10 ** 2`). Tokens usually opt for a value of 18, imitating the relationship between Ether and Wei. This is the value {ERC20} uses, unless {_setupDecimals} is called. NOTE: This information is only used for _display_ purposes: it in no way affects any of the arithmetic of the contract, including {IERC20-balanceOf} and {IERC20-transfer}."
      },
      "decreaseAllowance(address,uint256)": {
        "details": "Atomically decreases the allowance granted to `spender` by the caller. This is an alternative to {approve} that can be used as a mitigation for problems described in {IERC20-approve}. Emits an {Approval} event indicating the updated allowance. Requirements: - `spender` cannot be the zero address. - `spender` must have allowance for the caller of at least `subtractedValue`."
      },
      "increaseAllowance(address,uint256)": {
        "details": "Atomically increases the allowance granted to `spender` by the caller. This is an alternative to {approve} that can be used as a mitigation for problems described in {IERC20-approve}. Emits an {Approval} event indicating the updated allowance. Requirements: - `spender` cannot be the zero address."
      },
      "name()": {
        "details": "Returns the name of the token."
      },
      "symbol()": {
        "details": "Returns the symbol of the token, usually a shorter version of the name."
      },
      "totalSupply()": {
        "details": "See {IERC20-totalSupply}."
      },
      "transfer(address,uint256)": {
        "details": "See {IERC20-transfer}. Requirements: - `recipient` cannot be the zero address. - the caller must have a balance of at least `amount`."
      },
      "transferFrom(address,address,uint256)": {
        "details": "See {IERC20-transferFrom}. Emits an {Approval} event indicating the updated allowance. This is not required by the EIP. See the note at the beginning of {ERC20}; Requirements: - `sender` and `recipient` cannot be the zero address. - `sender` must have a balance of at least `amount`. - the caller must have allowance for ``sender``'s tokens of at least `amount`."
      }
    },
    "title": "A mintable ERC20 token \"Upstate\" with restricted transfer times",
    "version": 1
  },
  "userdoc": {
    "kind": "user",
    "methods": {},
    "notice": "The token can only be transferred between the startTime and endTime. 1000 tokens intialized",
    "version": 1
  }
}